:100000000C943E000C9453000C9453000C94530039
:100010000C9453000C9453000C9453000C94530014
:100020000C9453000C9453000C9453000C94530004
:100030000C9453000C9453000C9453000C945300F4
:100040000C9453000C9453000C9453000C945300E4
:100050000C9453000C9453000C9453000C945300D4
:100060000C9453000C9453000C9453000C945300C4
:100070000C9453000C9453000C94530011241FBE95
:10008000CFEFD0E1DEBFCDBF11E0A0E0B1E0E8E20C
:10009000F1E002C005900D92A230B107D9F70E949D
:1000A00061000C9492000C94000088B188B988B16A
:1000B000826088B9089588B188B988B1816088B9AB
:1000C000089580E38AB983E087B980910001909117
:1000D00001019093890080938800809100019091A4
:1000E000010190938B0080938A0081EA80938000C5
:1000F00089E0809381004A9905C04B9903C00E9412
:100100005500F9CF4A9902C04B99F5CF4A9B05C0DB
:100110004B9903C00E945B00EECF10920101109238
:080120000001E9CFF894FFCFC4
:02012800FF00D6
:00000001FF
