:100000000C943E000C9448000C9448000C9448005A
:100010000C9448000C9448000C9448000C94480040
:100020000C9448000C9448000C9448000C94480030
:100030000C9448000C9448000C9448000C94480020
:100040000C9448000C9448000C9448000C94480010
:100050000C9448000C9448000C9448000C94480000
:100060000C9448000C9448000C9448000C944800F0
:100070000C9448000C9448000C94480011241FBEB6
:10008000CFEFD0E1DEBFCDBF0E944A000C946900E3
:100090000C9400008FE087B989B18C7069F088B149
:1000A000816088B988B1877F88B988B1826088B952
:1000B00088B18B7F88B9F0CF88B1886088B988B162
:1000C0008E7F88B988B1846088B988B18D7F88B9FE
:0600D000E3CFF894FFCF1E
:00000001FF
