:100000000C943E000C9448000C9448000C9448005A
:100010000C9448000C9448000C9448000C94480040
:100020000C9448000C9448000C9448000C94480030
:100030000C9448000C9448000C9448000C94480020
:100040000C9448000C9448000C9448000C94480010
:100050000C9448000C9448000C9448000C94480000
:100060000C9448000C9448000C9448000C944800F0
:100070000C9448000C9448000C94480011241FBEB6
:10008000CFEFD0E1DEBFCDBF0E94CE000C941801AF
:100090000C9400002B982DE02A95F1F700002B9A84
:1000A00080E090E009C026E02A95F1F700C00196B3
:1000B000803523EC9207D9F01C99F5CF40E050E051
:1000C000BA010EC086E08A95F1F700C04F5F5F4F1E
:1000D0006F4F7F4F403523EC52076105710561F08A
:1000E0001C9BF0CF342F252F862F972F09C030E58A
:1000F00023EC80E090E004C030E523EC80E090E069
:10010000632F722F08950E944A00603523EC720716
:100110008105910540F422E330E040E050E00E9488
:10012000E700C90108958FE090E008958F309105B0
:10013000B8F4009711F481E090E09C01215031095E
:10014000A0E8B2E00E9409012EE030E040E050E07B
:100150000E94E700DA01C901CC96A11DB11D0895E6
:1001600080E090E00895009741F0E7E8F3E13197EF
:10017000F1F700C000000197C1F70895CF93DF9316
:10018000299AEC01D695C795CE010E94B300299813
:10019000CE010E94B300DF91CF91089584B18A60AF
:1001A00084B924982B9A29980E9483000E94960073
:1001B000009751F42FE78AE196E02150804090406B
:1001C000E1F700C00000F0CF0E94BE00EDCFA1E239
:1001D0001A2EAA1BBB1BFD010DC0AA1FBB1FEE1FC1
:1001E000FF1FA217B307E407F50720F0A21BB30B0C
:1001F000E40BF50B661F771F881F991F1A9469F788
:1002000060957095809590959B01AC01BD01CF01E3
:100210000895A29FB001B39FC001A39F700D811DDF
:100220001124911DB29F700D811D1124911D0895FF
:04023000F894FFCF70
:00000001FF
