S013000042555A5A455220424545502E73726563F3
S11300000C943E000C9401010C945B000C945B0076
S11300100C945B000C945B000C945B000C945B00F0
S11300200C945B000C945B000C945B000C945B00E0
S11300300C945B000C945B000C945B000C945B00D0
S11300400C945B000C945B000C945B000C945B00C0
S11300500C94EB000C945B000C945B000C945B0020
S11300600C945B000C945B000C945B000C945B00A0
S11300700C945B000C945B000C945B0011241FBE79
S1130080CFEFD0E1DEBFCDBF11E0A0E0B1E0E6E903
S1130090F4E002C005900D92A830B107D9F721E031
S11300A0A8E0B1E001C01D92AC30B207E1F70E94B4
S11300B010010C9449020C9400002B9A2B9882E4B2
S11300C08A95F1F700C02B9A1C99FECF40E050E0CE
S11300D0BA010EC086E08A95F1F700C04F5F5F4F0A
S11300E06F4F7F4F403583EC58076105710539F038
S11300F01C9BF0CF342F252F862F972F04C030E57B
S113010023EC80E090E0632F722F08950E945D003D
S1130110603523EC72078105910540F422E330E059
S113012040E050E00E941802C90108958FE090E079
S113013008958F309105B8F4009711F481E090E0B0
S11301409C0121503109A0E8B2E00E943A022EE05D
S113015030E040E050E00E941802DA01C901CC9678
S1130160A11DB11D089580E090E00895009741F02D
S1130170E7E8F3E13197F1F700C000000197C1F718
S11301800895CF93DF93299AEC01D695C795CE01B4
S11301900E94B6002998CE010E94B600DF91CF914B
S11301A00895409A41980895419A40980895419A33
S11301B0409A0895419840980895109289001092A9
S11301C0880010928B0010928A000895109811985C
S11301D01298139808951F920F920FB60F9211243C
S11301E08F938091C6008A3521F481E080930B01BE
S11301F002C0809306018F910F900FBE0F901F9045
S113020018951F920F920FB60F9211248F9381E0CD
S113021080930A018F910F900FBE0F901F90189535
S113022084B18A6084B924982B9A29988AB180630E
S11302308AB987B1836087B98AB1837F8AB981B16A
S11302408F6081B90E94E6008091020190910301C0
S1130250909389008093880080910201909103011A
S113026090938B0080938A0081EA80938000A1E8B8
S1130270B0E089E08C93E9E6F0E0808182608083DD
S113028080818E7F8083E89AB093C500A093C400D8
S113029080E98093C10086E08093C200789408E8E6
S11302A010E0CAE8D0E0EE24E394F12C0E9486002A
S11302B090930901809308018091080190910901AC
S11302C00E949900009751F42FE78AE196E02150AB
S11302D080409040E1F700C0000002C00E94C100CD
S11302E08091080190910901069710F40E94DD00A5
S11302F080910A01882351F010920A01809108012B
S113030090910901069710F40E94DD0080910B0181
S1130310882391F010920B018091040190910501C2
S1130320892B29F4F0920501E092040154C0109243
S113033005011092040107C0809104019091050108
S1130340009709F045C08091080190910901069732
S113035028F40E94E6000E94DD00A8CF80910201EB
S113036090910301F801918380838091020190911F
S113037003019983888380910601863431F40E94B5
S1130380E600109A0E94D10091CF80910601823438
S113039031F40E94E600119A0E94D40087CF809124
S11303A006018C3431F40E94E600129A0E94D700B0
S11303B07DCF80910601823531F40E94E600139AC4
S11303C00E94DA0073CF0E94E6000E94DD006ECF27
S11303D0019709F06BCF809108019091090106976C
S11303E018F40E94DD0062CF809100019091010118
S11303F0F801918380838091000190910101998398
S1130400888389B18C7019F40E94D1004FCF4A9926
S113041003C00E94D7004ACF4B9903C00E94DA0060
S113042045CF89B18C7009F441CF0E94DD003ECFE5
S1130430A1E21A2EAA1BBB1BFD010DC0AA1FBB1FE4
S1130440EE1FFF1FA217B307E407F50720F0A21B56
S1130450B30BE40BF50B661F771F881F991F1A94C3
S113046069F760957095809590959B01AC01BD01ED
S1130470CF010895A29FB001B39FC001A39F700D47
S1130480811D1124911DB29F700D811D1124911D98
S10904900895F894FFCF6B
S10B0496C800FF00010053003F
S9030000FC
