:100000000C943E000C945B000C945B000C945B0021
:100010000C945B000C945B000C945B000C945B00F4
:100020000C945B000C945B000C945B000C945B00E4
:100030000C945B000C945B000C945B000C945B00D4
:100040000C945B000C945B000C945B000C945B00C4
:100050000C9446010C945B000C945B000C945B00C8
:100060000C945B000C945B000C945B000C945B00A4
:100070000C945B000C945B000C945B0011241FBE7D
:10008000CFEFD0E1DEBFCDBF11E0A0E0B1E0E6EC04
:10009000F2E002C005900D92A830B107D9F721E037
:1000A000A8E0B1E001C01D92AC30B207E1F70E94B8
:1000B00079000C9461010C94000088B1816088B9CA
:1000C00088B18D7F88B9089588B1826088B988B178
:1000D0008E7F88B9089588B1826088B988B18160BF
:1000E00088B9089588B18D7F88B988B18E7F88B925
:1000F000089580E38AB983E087B9809102019091E5
:10010000030190938900809388008091020190916F
:10011000030190938B0080938A0081EA8093800092
:10012000E1E8F0E089E08083F093C500E093C4004B
:1001300080E98093C10086E08093C2008FE081B99E
:10014000789480910A0190910B01892BA9F010926B
:100150000B0110920A018091040190910501892BF5
:1001600039F481E090E0909305018093040104C08C
:1001700010920501109204018091040190910501F3
:10018000009709F04DC08091020190910301909376
:1001900089008093880080910201909103019093DF
:1001A0008B0080938A0080910601863431F482B1FD
:1001B000816082B90E945D00C4CF809106018234C3
:1001C00031F482B1826082B90E946400BACF80911A
:1001D00006018C3431F482B1846082B90E946B00D4
:1001E000B0CF80910601823531F482B1886082B946
:1001F0000E947200A6CF82B18E7F82B982B18D7FBC
:1002000082B982B18B7F82B982B1877F82B9109225
:1002100089001092880010928B0010928A0091CF72
:10022000019709F08ECF8091000190910101909388
:100230008900809388008091000190910101909342
:100240008B0080938A0089B18C7019F40E945D0044
:1002500008C04A9903C00E946B0003C04B9B0E94D8
:10026000720089B18C7009F46CCF80910801909173
:1002700009019093890080938800809108019091F2
:10028000090190938B0080938A005BCF1F920F929D
:100290000FB60F9211248F939F938091C6008A35D9
:1002A00039F481E090E090930B0180930A0102C041
:1002B000809306019F918F910F900FBE0F901F901A
:0602C0001895F894FFCF31
:0802C600EB00FF0001005300F2
:00000001FF
