:100000000C943E000C9453000C9453000C94530039
:100010000C9453000C9453000C9453000C94530014
:100020000C9453000C9453000C9453000C94530004
:100030000C9453000C9453000C9453000C945300F4
:100040000C9453000C9453000C9453000C945300E4
:100050000C9453000C9453000C9453000C945300D4
:100060000C9453000C9453000C9453000C945300C4
:100070000C9453000C9453000C94530011241FBE95
:10008000CFEFD0E1DEBFCDBF11E0A0E0B1E0E0E115
:10009000F1E002C005900D92A230B107D9F70E949D
:1000A00055000C9486000C94000080E28AB983E02D
:1000B00087B980910001909101019093890080930C
:1000C000880081E88093800089E08093810088B176
:1000D000816088B988B18D7F88B92FE784E89EE177
:1000E000215080409040E1F700C0000088B182605C
:1000F00088B988B18E7F88B92FE784E89EE12150C6
:1001000080409040E1F700C00000E1CFF894FFCFBD
:02011000FF00EE
:00000001FF
