:100000000C943E000C9450000C9450000C94500042
:100010000C9450000C9450000C9450000C94500020
:100020000C9450000C9450000C9450000C94500010
:100030000C9450000C9489000C9450000C945000C7
:100040000C9450000C9450000C9450000C945000F0
:100050000C9450000C9450000C9450000C945000E0
:100060000C9450000C9450000C9450000C945000D0
:100070000C9450000C9450000C94500011241FBE9E
:10008000CFEFD0E1DEBFCDBF21E0A0E0B1E001C005
:100090001D92A430B207E1F70E9467000C94FA00A9
:1000A0000C940000EAE7F0E0808180648083808126
:1000B00086FDFDCF80917800909179000895E0EC65
:1000C000F0E0908195FFFDCF8093C6000895E1E8B0
:1000D000F0E0F093C500E093C40088E08093C10095
:1000E00082E480937C0087E880937A008FEF80938E
:1000F0007E008AB184618AB983E294EF909389008B
:10010000809388008BE0808382E080936F007894F6
:10011000FFCF1F920F920FB60F9211242F933F9390
:100120004F935F936F937F938F939F93AF93BF93FF
:10013000CF93DF93EF93FF939BB180E189278BB936
:10014000CCE7D0E082E488830E9452000E945200F3
:10015000909303018093020183E488830E945200FC
:100160000E9452009093010180930001809102014E
:10017000909103018D3B924024F086E40E945F0041
:1001800026C080910201909103018C32914024F4A9
:1001900082E40E945F001BC08091000190910101E8
:1001A0008D3B924024F08CE40E945F0010C080914F
:1001B0000001909101018C32914024F482E50E946B
:1001C0005F0005C084E08BB98AE50E945F00FF9163
:1001D000EF91DF91CF91BF91AF919F918F917F91DF
:1001E0006F915F914F913F912F910F900FBE0F90A4
:0801F0001F901895F894FFCF51
:00000001FF
